:08000000803102288731FD2F39
:100F000016302100990008008731BE2787318731CC
:100F10008E27873187318027873108007030210084
:100F20009B0080309C009A019D011C1F982F992FD7
:100F3000952F080087318427873122000D108D14EA
:100F40002930F1009630F0007F30890BA52FF00B8F
:100F5000A52FF10BA52F000022000D148D102930B4
:100F6000F1009630F0007F30890BB42FF00BB42FD6
:100F7000F10BB42F00009D2F803102282200900138
:100F80008F018C018D018E01073021009000FF3010
:100F90008C00FC308D00FF308E00FF308F00FF3062
:100FA00023008F00FC308E003C308D000730900015
:100FB0003F308C0024008F0190018D018C018E0147
:100FC00021009717250090018C018D018E018F0162
:100FD000FF3026008C00FF308D00FF308E00FF3088
:100FE0008F00073090003F3027008C00F0308D00DC
:100FF000FF308E00FF308F000800200087319A2FCD
:020000040001F9
:04000E00E43FFF3F8D
:00000001FF
